{
  "contractName": "Healthcare",
  "abi": [
    {
      "inputs": [],
      "stateMutability": "nonpayable",
      "type": "constructor"
    },
    {
      "anonymous": false,
      "inputs": [
        {
          "indexed": true,
          "internalType": "address",
          "name": "owner",
          "type": "address"
        },
        {
          "indexed": true,
          "internalType": "address",
          "name": "approved",
          "type": "address"
        },
        {
          "indexed": true,
          "internalType": "uint256",
          "name": "tokenId",
          "type": "uint256"
        }
      ],
      "name": "Approval",
      "type": "event"
    },
    {
      "anonymous": false,
      "inputs": [
        {
          "indexed": true,
          "internalType": "address",
          "name": "owner",
          "type": "address"
        },
        {
          "indexed": true,
          "internalType": "address",
          "name": "operator",
          "type": "address"
        },
        {
          "indexed": false,
          "internalType": "bool",
          "name": "approved",
          "type": "bool"
        }
      ],
      "name": "ApprovalForAll",
      "type": "event"
    },
    {
      "anonymous": false,
      "inputs": [
        {
          "indexed": true,
          "internalType": "address",
          "name": "clinic",
          "type": "address"
        },
        {
          "indexed": false,
          "internalType": "uint256",
          "name": "amount",
          "type": "uint256"
        }
      ],
      "name": "Claim",
      "type": "event"
    },
    {
      "anonymous": false,
      "inputs": [
        {
          "indexed": true,
          "internalType": "address",
          "name": "user",
          "type": "address"
        },
        {
          "indexed": false,
          "internalType": "uint256",
          "name": "amount",
          "type": "uint256"
        }
      ],
      "name": "Deposit",
      "type": "event"
    },
    {
      "anonymous": false,
      "inputs": [
        {
          "indexed": true,
          "internalType": "address",
          "name": "to",
          "type": "address"
        },
        {
          "indexed": false,
          "internalType": "uint256",
          "name": "tokenId",
          "type": "uint256"
        }
      ],
      "name": "NFTMinted",
      "type": "event"
    },
    {
      "anonymous": false,
      "inputs": [
        {
          "indexed": true,
          "internalType": "address",
          "name": "user",
          "type": "address"
        },
        {
          "indexed": true,
          "internalType": "address",
          "name": "clinic",
          "type": "address"
        },
        {
          "indexed": false,
          "internalType": "uint256",
          "name": "amount",
          "type": "uint256"
        }
      ],
      "name": "Payment",
      "type": "event"
    },
    {
      "anonymous": false,
      "inputs": [
        {
          "indexed": true,
          "internalType": "address",
          "name": "from",
          "type": "address"
        },
        {
          "indexed": true,
          "internalType": "address",
          "name": "to",
          "type": "address"
        },
        {
          "indexed": true,
          "internalType": "uint256",
          "name": "tokenId",
          "type": "uint256"
        }
      ],
      "name": "Transfer",
      "type": "event"
    },
    {
      "anonymous": false,
      "inputs": [
        {
          "indexed": true,
          "internalType": "address",
          "name": "user",
          "type": "address"
        },
        {
          "indexed": false,
          "internalType": "uint256",
          "name": "amount",
          "type": "uint256"
        },
        {
          "indexed": false,
          "internalType": "uint256",
          "name": "interest",
          "type": "uint256"
        }
      ],
      "name": "Withdraw",
      "type": "event"
    },
    {
      "inputs": [],
      "name": "admin",
      "outputs": [
        {
          "internalType": "address",
          "name": "",
          "type": "address"
        }
      ],
      "stateMutability": "view",
      "type": "function"
    },
    {
      "inputs": [
        {
          "internalType": "address",
          "name": "to",
          "type": "address"
        },
        {
          "internalType": "uint256",
          "name": "tokenId",
          "type": "uint256"
        }
      ],
      "name": "approve",
      "outputs": [],
      "stateMutability": "nonpayable",
      "type": "function"
    },
    {
      "inputs": [],
      "name": "apy",
      "outputs": [
        {
          "internalType": "uint256",
          "name": "",
          "type": "uint256"
        }
      ],
      "stateMutability": "view",
      "type": "function"
    },
    {
      "inputs": [
        {
          "internalType": "address",
          "name": "owner",
          "type": "address"
        }
      ],
      "name": "balanceOf",
      "outputs": [
        {
          "internalType": "uint256",
          "name": "",
          "type": "uint256"
        }
      ],
      "stateMutability": "view",
      "type": "function"
    },
    {
      "inputs": [
        {
          "internalType": "address",
          "name": "",
          "type": "address"
        }
      ],
      "name": "balances",
      "outputs": [
        {
          "internalType": "uint256",
          "name": "",
          "type": "uint256"
        }
      ],
      "stateMutability": "view",
      "type": "function"
    },
    {
      "inputs": [
        {
          "internalType": "address",
          "name": "",
          "type": "address"
        }
      ],
      "name": "clinicBalances",
      "outputs": [
        {
          "internalType": "uint256",
          "name": "",
          "type": "uint256"
        }
      ],
      "stateMutability": "view",
      "type": "function"
    },
    {
      "inputs": [
        {
          "internalType": "uint256",
          "name": "tokenId",
          "type": "uint256"
        }
      ],
      "name": "getApproved",
      "outputs": [
        {
          "internalType": "address",
          "name": "",
          "type": "address"
        }
      ],
      "stateMutability": "view",
      "type": "function"
    },
    {
      "inputs": [
        {
          "internalType": "address",
          "name": "",
          "type": "address"
        }
      ],
      "name": "hasNFT",
      "outputs": [
        {
          "internalType": "bool",
          "name": "",
          "type": "bool"
        }
      ],
      "stateMutability": "view",
      "type": "function"
    },
    {
      "inputs": [
        {
          "internalType": "address",
          "name": "owner",
          "type": "address"
        },
        {
          "internalType": "address",
          "name": "operator",
          "type": "address"
        }
      ],
      "name": "isApprovedForAll",
      "outputs": [
        {
          "internalType": "bool",
          "name": "",
          "type": "bool"
        }
      ],
      "stateMutability": "view",
      "type": "function"
    },
    {
      "inputs": [
        {
          "internalType": "address",
          "name": "",
          "type": "address"
        }
      ],
      "name": "lastDepositTime",
      "outputs": [
        {
          "internalType": "uint256",
          "name": "",
          "type": "uint256"
        }
      ],
      "stateMutability": "view",
      "type": "function"
    },
    {
      "inputs": [],
      "name": "name",
      "outputs": [
        {
          "internalType": "string",
          "name": "",
          "type": "string"
        }
      ],
      "stateMutability": "view",
      "type": "function"
    },
    {
      "inputs": [],
      "name": "nextTokenId",
      "outputs": [
        {
          "internalType": "uint256",
          "name": "",
          "type": "uint256"
        }
      ],
      "stateMutability": "view",
      "type": "function"
    },
    {
      "inputs": [
        {
          "internalType": "uint256",
          "name": "tokenId",
          "type": "uint256"
        }
      ],
      "name": "ownerOf",
      "outputs": [
        {
          "internalType": "address",
          "name": "",
          "type": "address"
        }
      ],
      "stateMutability": "view",
      "type": "function"
    },
    {
      "inputs": [
        {
          "internalType": "address",
          "name": "from",
          "type": "address"
        },
        {
          "internalType": "address",
          "name": "to",
          "type": "address"
        },
        {
          "internalType": "uint256",
          "name": "tokenId",
          "type": "uint256"
        }
      ],
      "name": "safeTransferFrom",
      "outputs": [],
      "stateMutability": "nonpayable",
      "type": "function"
    },
    {
      "inputs": [
        {
          "internalType": "address",
          "name": "from",
          "type": "address"
        },
        {
          "internalType": "address",
          "name": "to",
          "type": "address"
        },
        {
          "internalType": "uint256",
          "name": "tokenId",
          "type": "uint256"
        },
        {
          "internalType": "bytes",
          "name": "data",
          "type": "bytes"
        }
      ],
      "name": "safeTransferFrom",
      "outputs": [],
      "stateMutability": "nonpayable",
      "type": "function"
    },
    {
      "inputs": [
        {
          "internalType": "address",
          "name": "operator",
          "type": "address"
        },
        {
          "internalType": "bool",
          "name": "approved",
          "type": "bool"
        }
      ],
      "name": "setApprovalForAll",
      "outputs": [],
      "stateMutability": "nonpayable",
      "type": "function"
    },
    {
      "inputs": [
        {
          "internalType": "bytes4",
          "name": "interfaceId",
          "type": "bytes4"
        }
      ],
      "name": "supportsInterface",
      "outputs": [
        {
          "internalType": "bool",
          "name": "",
          "type": "bool"
        }
      ],
      "stateMutability": "view",
      "type": "function"
    },
    {
      "inputs": [],
      "name": "symbol",
      "outputs": [
        {
          "internalType": "string",
          "name": "",
          "type": "string"
        }
      ],
      "stateMutability": "view",
      "type": "function"
    },
    {
      "inputs": [
        {
          "internalType": "uint256",
          "name": "tokenId",
          "type": "uint256"
        }
      ],
      "name": "tokenURI",
      "outputs": [
        {
          "internalType": "string",
          "name": "",
          "type": "string"
        }
      ],
      "stateMutability": "view",
      "type": "function"
    },
    {
      "inputs": [
        {
          "internalType": "address",
          "name": "from",
          "type": "address"
        },
        {
          "internalType": "address",
          "name": "to",
          "type": "address"
        },
        {
          "internalType": "uint256",
          "name": "tokenId",
          "type": "uint256"
        }
      ],
      "name": "transferFrom",
      "outputs": [],
      "stateMutability": "nonpayable",
      "type": "function"
    },
    {
      "inputs": [],
      "name": "deposit",
      "outputs": [],
      "stateMutability": "payable",
      "type": "function"
    },
    {
      "inputs": [
        {
          "internalType": "uint256",
          "name": "amount",
          "type": "uint256"
        }
      ],
      "name": "withdraw",
      "outputs": [],
      "stateMutability": "nonpayable",
      "type": "function"
    },
    {
      "inputs": [
        {
          "internalType": "address",
          "name": "clinic",
          "type": "address"
        },
        {
          "internalType": "uint256",
          "name": "amount",
          "type": "uint256"
        }
      ],
      "name": "payForHealthcare",
      "outputs": [],
      "stateMutability": "nonpayable",
      "type": "function"
    },
    {
      "inputs": [],
      "name": "claimPayment",
      "outputs": [],
      "stateMutability": "nonpayable",
      "type": "function"
    },
    {
      "inputs": [
        {
          "internalType": "uint256",
          "name": "_apy",
          "type": "uint256"
        }
      ],
      "name": "setApy",
      "outputs": [],
      "stateMutability": "nonpayable",
      "type": "function"
    }
  ],
  "bytecode": "0x6080604052600260085534801562000015575f80fd5b506040518060400160405280600d81526020016c1219585b1d1a18d85c99539195609a1b815250604051806040016040528060048152602001631213919560e21b815250815f908162000069919062000133565b50600162000078828262000133565b5050600780546001600160a01b0319163317905550620001fb565b634e487b7160e01b5f52604160045260245ffd5b600181811c90821680620000bc57607f821691505b602082108103620000db57634e487b7160e01b5f52602260045260245ffd5b50919050565b601f8211156200012e575f81815260208120601f850160051c81016020861015620001095750805b601f850160051c820191505b818110156200012a5782815560010162000115565b5050505b505050565b81516001600160401b038111156200014f576200014f62000093565b6200016781620001608454620000a7565b84620000e1565b602080601f8311600181146200019d575f8415620001855750858301515b5f19600386901b1c1916600185901b1785556200012a565b5f85815260208120601f198616915b82811015620001cd57888601518255948401946001909101908401620001ac565b5085821015620001eb57878501515f19600388901b60f8161c191681555b5050505050600190811b01905550565b611bfd80620002095f395ff3fe608060405260043610610161575f3560e01c80636352211e116100cd578063b88d4fde11610087578063d0e30db011610062578063d0e30db01461042c578063e19fe7c514610434578063e985e9c51461045f578063f851a4401461047e575f80fd5b8063b88d4fde146103da578063c7dea2f2146103f9578063c87b56dd1461040d575f80fd5b80636352211e1461032657806370a082311461034557806375794a3c14610364578063785f8ee31461037957806395d89b41146103a7578063a22cb465146103bb575f80fd5b806323b872dd1161011e57806323b872dd1461026a57806327e235e3146102895780632e1a7d4d146102b45780633b3f5e36146102d35780633bcfc4b8146102f257806342842e0e14610307575f80fd5b806301ffc9a714610165578063025277531461019957806306fdde03146101d2578063081812fc146101f35780630839d8201461022a578063095ea7b31461024b575b5f80fd5b348015610170575f80fd5b5061018461017f3660046116fd565b61049d565b60405190151581526020015b60405180910390f35b3480156101a4575f80fd5b506101c46101b3366004611733565b600a6020525f908152604090205481565b604051908152602001610190565b3480156101dd575f80fd5b506101e66104ee565b6040516101909190611799565b3480156101fe575f80fd5b5061021261020d3660046117ab565b61057d565b6040516001600160a01b039091168152602001610190565b348015610235575f80fd5b506102496102443660046117c2565b6105a2565b005b348015610256575f80fd5b506102496102653660046117c2565b610760565b348015610275575f80fd5b506102496102843660046117ea565b610874565b348015610294575f80fd5b506101c46102a3366004611733565b60096020525f908152604090205481565b3480156102bf575f80fd5b506102496102ce3660046117ab565b6108a5565b3480156102de575f80fd5b506102496102ed3660046117ab565b610a32565b3480156102fd575f80fd5b506101c460085481565b348015610312575f80fd5b506102496103213660046117ea565b610a8a565b348015610331575f80fd5b506102126103403660046117ab565b610aa4565b348015610350575f80fd5b506101c461035f366004611733565b610b03565b34801561036f575f80fd5b506101c460065481565b348015610384575f80fd5b50610184610393366004611733565b600c6020525f908152604090205460ff1681565b3480156103b2575f80fd5b506101e6610b87565b3480156103c6575f80fd5b506102496103d5366004611823565b610b96565b3480156103e5575f80fd5b506102496103f4366004611870565b610ba5565b348015610404575f80fd5b50610249610bdd565b348015610418575f80fd5b506101e66104273660046117ab565b610cda565b610249610d4a565b34801561043f575f80fd5b506101c461044e366004611733565b600b6020525f908152604090205481565b34801561046a575f80fd5b50610184610479366004611945565b610df3565b348015610489575f80fd5b50600754610212906001600160a01b031681565b5f6001600160e01b031982166380ac58cd60e01b14806104cd57506001600160e01b03198216635b5e139f60e01b145b806104e857506301ffc9a760e01b6001600160e01b03198316145b92915050565b60605f80546104fc90611976565b80601f016020809104026020016040519081016040528092919081815260200182805461052890611976565b80156105735780601f1061054a57610100808354040283529160200191610573565b820191905f5260205f20905b81548152906001019060200180831161055657829003601f168201915b5050505050905090565b5f61058782610e20565b505f908152600460205260409020546001600160a01b031690565b600d5460ff16156105ce5760405162461bcd60e51b81526004016105c5906119ae565b60405180910390fd5b600d805460ff19166001179055335f908152600960205260409020548111156106305760405162461bcd60e51b8152602060048201526014602482015273696e73756666696369656e742062616c616e636560601b60448201526064016105c5565b335f908152600a602052604081205461064990426119ea565b600854335f90815260096020526040812054929350916301e13380916064918591610673916119fd565b61067d91906119fd565b6106879190611a14565b6106919190611a14565b335f908152600960205260408120805492935085929091906106b49084906119ea565b9091555050604051339082156108fc029083905f818181858888f193505050501580156106e3573d5f803e3d5ffd5b506001600160a01b0384165f908152600b60205260408120805485929061070b908490611a33565b90915550506040518381526001600160a01b0385169033907f8ed7db30df47fbd87811a5e8a95a94838f0c0241263d9a1865d6a2a3e10516e29060200160405180910390a35050600d805460ff191690555050565b5f61076a82610aa4565b9050806001600160a01b0316836001600160a01b0316036107d75760405162461bcd60e51b815260206004820152602160248201527f4552433732313a20617070726f76616c20746f2063757272656e74206f776e656044820152603960f91b60648201526084016105c5565b336001600160a01b03821614806107f357506107f38133610df3565b6108655760405162461bcd60e51b815260206004820152603d60248201527f4552433732313a20617070726f76652063616c6c6572206973206e6f7420746f60448201527f6b656e206f776e6572206f7220617070726f76656420666f7220616c6c00000060648201526084016105c5565b61086f8383610e81565b505050565b61087e3382610eee565b61089a5760405162461bcd60e51b81526004016105c590611a46565b61086f838383610f4c565b600d5460ff16156108c85760405162461bcd60e51b81526004016105c5906119ae565b600d805460ff19166001179055335f9081526009602052604090205481111561092a5760405162461bcd60e51b8152602060048201526014602482015273696e73756666696369656e742062616c616e636560601b60448201526064016105c5565b335f908152600a602052604081205461094390426119ea565b600854335f90815260096020526040812054929350916301e1338091606491859161096d916119fd565b61097791906119fd565b6109819190611a14565b61098b9190611a14565b335f908152600960205260408120805492935085929091906109ae9084906119ea565b909155503390506108fc6109c28386611a33565b6040518115909202915f818181858888f193505050501580156109e7573d5f803e3d5ffd5b50604080518481526020810183905233917ff279e6a1f5e320cca91135676d9cb6e44ca8a08c0b88342bcdb1144f6511b568910160405180910390a25050600d805460ff1916905550565b6007546001600160a01b03163314610a855760405162461bcd60e51b81526020600482015260166024820152756f6e6c792061646d696e2063616e207365742041505960501b60448201526064016105c5565b600855565b61086f83838360405180602001604052805f815250610ba5565b5f818152600260205260408120546001600160a01b0316806104e85760405162461bcd60e51b8152602060048201526018602482015277115490cdcc8c4e881a5b9d985b1a59081d1bdad95b88125160421b60448201526064016105c5565b5f6001600160a01b038216610b6c5760405162461bcd60e51b815260206004820152602960248201527f4552433732313a2061646472657373207a65726f206973206e6f7420612076616044820152683634b21037bbb732b960b91b60648201526084016105c5565b506001600160a01b03165f9081526003602052604090205490565b6060600180546104fc90611976565b610ba13383836110bb565b5050565b610baf3383610eee565b610bcb5760405162461bcd60e51b81526004016105c590611a46565b610bd784848484611188565b50505050565b600d5460ff1615610c005760405162461bcd60e51b81526004016105c5906119ae565b600d805460ff19166001179055335f908152600b602052604090205480610c5f5760405162461bcd60e51b81526020600482015260136024820152726e6f2062616c616e636520746f20636c61696d60681b60448201526064016105c5565b335f818152600b60205260408082208290555183156108fc0291849190818181858888f19350505050158015610c97573d5f803e3d5ffd5b5060405181815233907f47cee97cb7acd717b3c0aa1435d004cd5b3c8c57d70dbceb4e4458bbd60e39d49060200160405180910390a250600d805460ff19169055565b6060610ce582610e20565b5f610cfa60408051602081019091525f815290565b90505f815111610d185760405180602001604052805f815250610d43565b80610d22846111bb565b604051602001610d33929190611a93565b6040516020818303038152906040525b9392505050565b335f9081526009602052604081208054349290610d68908490611a33565b9091555050335f818152600a602052604090819020429055517fe1fffcc4923d04b559f4d29a8bfc6cda04eb5b0d3c460751c2402c5c5cc9109c90610db09034815260200190565b60405180910390a2335f908152600c602052604090205460ff16610df157610dd73361124b565b335f908152600c60205260409020805460ff191660011790555b565b6001600160a01b039182165f90815260056020908152604080832093909416825291909152205460ff1690565b5f818152600260205260409020546001600160a01b0316610e7e5760405162461bcd60e51b8152602060048201526018602482015277115490cdcc8c4e881a5b9d985b1a59081d1bdad95b88125160421b60448201526064016105c5565b50565b5f81815260046020526040902080546001600160a01b0319166001600160a01b0384169081179091558190610eb582610aa4565b6001600160a01b03167f8c5be1e5ebec7d5bd14f71427d1e84f3dd0314c0f7b2291e5b200ac8c7c3b92560405160405180910390a45050565b5f80610ef983610aa4565b9050806001600160a01b0316846001600160a01b03161480610f205750610f208185610df3565b80610f445750836001600160a01b0316610f398461057d565b6001600160a01b0316145b949350505050565b826001600160a01b0316610f5f82610aa4565b6001600160a01b031614610f855760405162461bcd60e51b81526004016105c590611ac1565b6001600160a01b038216610fe75760405162461bcd60e51b8152602060048201526024808201527f4552433732313a207472616e7366657220746f20746865207a65726f206164646044820152637265737360e01b60648201526084016105c5565b610ff483838360016112b3565b826001600160a01b031661100782610aa4565b6001600160a01b03161461102d5760405162461bcd60e51b81526004016105c590611ac1565b5f81815260046020908152604080832080546001600160a01b03199081169091556001600160a01b038781168086526003855283862080545f1901905590871680865283862080546001019055868652600290945282852080549092168417909155905184937fddf252ad1be2c89b69c2b068fc378daa952ba7f163c4a11628f55a4df523b3ef91a4505050565b816001600160a01b0316836001600160a01b03160361111c5760405162461bcd60e51b815260206004820152601960248201527f4552433732313a20617070726f766520746f2063616c6c65720000000000000060448201526064016105c5565b6001600160a01b038381165f81815260056020908152604080832094871680845294825291829020805460ff191686151590811790915591519182527f17307eab39ab6107e8899845ad3d59bd9653f200f220920489ca2b5937696c31910160405180910390a3505050565b611193848484610f4c565b61119f84848484611339565b610bd75760405162461bcd60e51b81526004016105c590611b06565b60605f6111c783611436565b60010190505f8167ffffffffffffffff8111156111e6576111e661185c565b6040519080825280601f01601f191660200182016040528015611210576020820181803683370190505b5090508181016020015b5f19016f181899199a1a9b1b9c1cb0b131b232b360811b600a86061a8153600a850494508461121a57509392505050565b6112578160065461150d565b806001600160a01b03167f4cc0a9c4a99ddc700de1af2c9f916a7cbfdb71f14801ccff94061ad1ef8a804060065460405161129491815260200190565b60405180910390a260068054905f6112ab83611b58565b919050555050565b6001811115610bd7576001600160a01b038416156112f8576001600160a01b0384165f90815260036020526040812080548392906112f29084906119ea565b90915550505b6001600160a01b03831615610bd7576001600160a01b0383165f908152600360205260408120805483929061132e908490611a33565b909155505050505050565b5f6001600160a01b0384163b1561142b57604051630a85bd0160e11b81526001600160a01b0385169063150b7a029061137c903390899088908890600401611b70565b6020604051808303815f875af19250505080156113b6575060408051601f3d908101601f191682019092526113b391810190611bac565b60015b611411573d8080156113e3576040519150601f19603f3d011682016040523d82523d5f602084013e6113e8565b606091505b5080515f036114095760405162461bcd60e51b81526004016105c590611b06565b805181602001fd5b6001600160e01b031916630a85bd0160e11b149050610f44565b506001949350505050565b5f8072184f03e93ff9f4daa797ed6e38ed64bf6a1f0160401b83106114745772184f03e93ff9f4daa797ed6e38ed64bf6a1f0160401b830492506040015b6d04ee2d6d415b85acef810000000083106114a0576d04ee2d6d415b85acef8100000000830492506020015b662386f26fc1000083106114be57662386f26fc10000830492506010015b6305f5e10083106114d6576305f5e100830492506008015b61271083106114ea57612710830492506004015b606483106114fc576064830492506002015b600a83106104e85760010192915050565b610ba1828260405180602001604052805f81525061152b8383611553565b6115375f848484611339565b61086f5760405162461bcd60e51b81526004016105c590611b06565b6001600160a01b0382166115a95760405162461bcd60e51b815260206004820181905260248201527f4552433732313a206d696e7420746f20746865207a65726f206164647265737360448201526064016105c5565b5f818152600260205260409020546001600160a01b03161561160d5760405162461bcd60e51b815260206004820152601c60248201527f4552433732313a20746f6b656e20616c7265616479206d696e7465640000000060448201526064016105c5565b61161a5f838360016112b3565b5f818152600260205260409020546001600160a01b03161561167e5760405162461bcd60e51b815260206004820152601c60248201527f4552433732313a20746f6b656e20616c7265616479206d696e7465640000000060448201526064016105c5565b6001600160a01b0382165f81815260036020908152604080832080546001019055848352600290915280822080546001600160a01b0319168417905551839291907fddf252ad1be2c89b69c2b068fc378daa952ba7f163c4a11628f55a4df523b3ef908290a45050565b6001600160e01b031981168114610e7e575f80fd5b5f6020828403121561170d575f80fd5b8135610d43816116e8565b80356001600160a01b038116811461172e575f80fd5b919050565b5f60208284031215611743575f80fd5b610d4382611718565b5f5b8381101561176657818101518382015260200161174e565b50505f910152565b5f815180845261178581602086016020860161174c565b601f01601f19169290920160200192915050565b602081525f610d43602083018461176e565b5f602082840312156117bb575f80fd5b5035919050565b5f80604083850312156117d3575f80fd5b6117dc83611718565b946020939093013593505050565b5f805f606084860312156117fc575f80fd5b61180584611718565b925061181360208501611718565b9150604084013590509250925092565b5f8060408385031215611834575f80fd5b61183d83611718565b915060208301358015158114611851575f80fd5b809150509250929050565b634e487b7160e01b5f52604160045260245ffd5b5f805f8060808587031215611883575f80fd5b61188c85611718565b935061189a60208601611718565b925060408501359150606085013567ffffffffffffffff808211156118bd575f80fd5b818701915087601f8301126118d0575f80fd5b8135818111156118e2576118e261185c565b604051601f8201601f19908116603f0116810190838211818310171561190a5761190a61185c565b816040528281528a6020848701011115611922575f80fd5b826020860160208301375f60208483010152809550505050505092959194509250565b5f8060408385031215611956575f80fd5b61195f83611718565b915061196d60208401611718565b90509250929050565b600181811c9082168061198a57607f821691505b6020821081036119a857634e487b7160e01b5f52602260045260245ffd5b50919050565b6020808252600e908201526d1499595b9d1c985b9d0818d85b1b60921b604082015260600190565b634e487b7160e01b5f52601160045260245ffd5b818103818111156104e8576104e86119d6565b80820281158282048414176104e8576104e86119d6565b5f82611a2e57634e487b7160e01b5f52601260045260245ffd5b500490565b808201808211156104e8576104e86119d6565b6020808252602d908201527f4552433732313a2063616c6c6572206973206e6f7420746f6b656e206f776e6560408201526c1c881bdc88185c1c1c9bdd9959609a1b606082015260800190565b5f8351611aa481846020880161174c565b835190830190611ab881836020880161174c565b01949350505050565b60208082526025908201527f4552433732313a207472616e736665722066726f6d20696e636f72726563742060408201526437bbb732b960d91b606082015260800190565b60208082526032908201527f4552433732313a207472616e7366657220746f206e6f6e20455243373231526560408201527131b2b4bb32b91034b6b83632b6b2b73a32b960711b606082015260800190565b5f60018201611b6957611b696119d6565b5060010190565b6001600160a01b03858116825284166020820152604081018390526080606082018190525f90611ba29083018461176e565b9695505050505050565b5f60208284031215611bbc575f80fd5b8151610d43816116e856fea264697066735822122072539a7ec2150b917a1629b347d32424b1a9246b006a04d017628a4983f5c2ab64736f6c63430008140033",
  "immutableReferences": {},
  "source": "// SPDX-License-Identifier: MIT\npragma solidity ^0.8.20;\n\nimport \"@openzeppelin/contracts/token/ERC721/ERC721.sol\";\n\ncontract Healthcare is ERC721 {\n    uint256 public nextTokenId;\n    address public admin;\n    uint256 public apy = 2;\n\n    mapping(address => uint256) public balances;\n    mapping(address => uint256) public lastDepositTime;\n    mapping(address => uint256) public clinicBalances;\n    mapping(address => bool) public hasNFT; // Track if the user has an NFT\n    \n    bool private _locked;\n\n    event Deposit(address indexed user, uint256 amount);\n    event Withdraw(address indexed user, uint256 amount, uint256 interest);\n    event Payment(address indexed user, address indexed clinic, uint256 amount);\n    event Claim(address indexed clinic, uint256 amount);\n    event NFTMinted(address indexed to, uint256 tokenId);\n\n    constructor() ERC721('HealthcareNFT', 'HNFT') {\n        admin = msg.sender;\n    }\n\n    modifier nonReentrant() {\n        require(!_locked, \"Reentrant call\");\n        _locked = true;\n        _;\n        _locked = false;\n    }\n\n    function mint(address to) internal {\n        _safeMint(to, nextTokenId);\n        emit NFTMinted(to, nextTokenId);\n        nextTokenId++;\n    }\n\n    function deposit() external payable {\n        balances[msg.sender] += msg.value;\n        lastDepositTime[msg.sender] = block.timestamp;\n        emit Deposit(msg.sender, msg.value);\n\n        // Mint an NFT only if the user has not received one yet\n        if (!hasNFT[msg.sender]) {\n            mint(msg.sender);\n            hasNFT[msg.sender] = true; // Mark the user as having received an NFT\n        }\n    }\n\n    function withdraw(uint256 amount) external nonReentrant {\n        require(balances[msg.sender] >= amount, 'insufficient balance');\n        uint256 timeElapsed = block.timestamp - lastDepositTime[msg.sender];\n        uint256 interest = balances[msg.sender] * apy * timeElapsed / 100 / 365 days;\n        balances[msg.sender] -= amount;\n        payable(msg.sender).transfer(amount + interest);\n        emit Withdraw(msg.sender, amount, interest);\n    }\n\n    function payForHealthcare(address clinic, uint256 amount) external nonReentrant {\n        require(balances[msg.sender] >= amount, 'insufficient balance');\n        uint256 timeElapsed = block.timestamp - lastDepositTime[msg.sender];\n        uint256 interest = balances[msg.sender] * apy * timeElapsed / 100 / 365 days;\n        balances[msg.sender] -= amount;\n        payable(msg.sender).transfer(interest);\n        clinicBalances[clinic] += amount;\n        emit Payment(msg.sender, clinic, amount);\n    }\n\n    function claimPayment() external nonReentrant {\n        uint256 amount = clinicBalances[msg.sender];\n        require(amount > 0, \"no balance to claim\");\n        clinicBalances[msg.sender] = 0;\n        payable(msg.sender).transfer(amount);\n        emit Claim(msg.sender, amount);\n    }\n\n    function setApy(uint256 _apy) external {\n        require(msg.sender == admin, 'only admin can set APY');\n        apy = _apy;\n    }\n}\n",
  "sourcePath": "/Users/mdabdurrazzak/healthcare-dapp/healthcare-smart-contracts/contracts/Dot.sol",
  "compiler": {
    "name": "solc",
    "version": "0.8.20+commit.a1b79de6.Emscripten.clang"
  },
  "schemaVersion": "3.4.16",
  "updatedAt": "2024-07-20T19:11:23.074Z",
  "devdoc": {
    "events": {
      "Approval(address,address,uint256)": {
        "details": "Emitted when `owner` enables `approved` to manage the `tokenId` token."
      },
      "ApprovalForAll(address,address,bool)": {
        "details": "Emitted when `owner` enables or disables (`approved`) `operator` to manage all of its assets."
      },
      "Transfer(address,address,uint256)": {
        "details": "Emitted when `tokenId` token is transferred from `from` to `to`."
      }
    },
    "kind": "dev",
    "methods": {
      "approve(address,uint256)": {
        "details": "See {IERC721-approve}."
      },
      "balanceOf(address)": {
        "details": "See {IERC721-balanceOf}."
      },
      "getApproved(uint256)": {
        "details": "See {IERC721-getApproved}."
      },
      "isApprovedForAll(address,address)": {
        "details": "See {IERC721-isApprovedForAll}."
      },
      "name()": {
        "details": "See {IERC721Metadata-name}."
      },
      "ownerOf(uint256)": {
        "details": "See {IERC721-ownerOf}."
      },
      "safeTransferFrom(address,address,uint256)": {
        "details": "See {IERC721-safeTransferFrom}."
      },
      "safeTransferFrom(address,address,uint256,bytes)": {
        "details": "See {IERC721-safeTransferFrom}."
      },
      "setApprovalForAll(address,bool)": {
        "details": "See {IERC721-setApprovalForAll}."
      },
      "supportsInterface(bytes4)": {
        "details": "See {IERC165-supportsInterface}."
      },
      "symbol()": {
        "details": "See {IERC721Metadata-symbol}."
      },
      "tokenURI(uint256)": {
        "details": "See {IERC721Metadata-tokenURI}."
      },
      "transferFrom(address,address,uint256)": {
        "details": "See {IERC721-transferFrom}."
      }
    },
    "version": 1
  },
  "userdoc": {
    "kind": "user",
    "methods": {},
    "version": 1
  }
}